{
  "contractName": "UniswapHelper",
  "abi": [
    {
      "inputs": [
        {
          "internalType": "address",
          "name": "uniswap",
          "type": "address"
        }
      ],
      "stateMutability": "nonpayable",
      "type": "constructor"
    },
    {
      "inputs": [
        {
          "internalType": "address",
          "name": "factory",
          "type": "address"
        }
      ],
      "name": "updateFactory",
      "outputs": [],
      "stateMutability": "nonpayable",
      "type": "function"
    },
    {
      "inputs": [
        {
          "internalType": "address",
          "name": "tokenA",
          "type": "address"
        },
        {
          "internalType": "address",
          "name": "tokenB",
          "type": "address"
        }
      ],
      "name": "sortTokens",
      "outputs": [
        {
          "internalType": "address",
          "name": "token0",
          "type": "address"
        },
        {
          "internalType": "address",
          "name": "token1",
          "type": "address"
        }
      ],
      "stateMutability": "pure",
      "type": "function",
      "constant": true
    },
    {
      "inputs": [
        {
          "internalType": "address",
          "name": "factory",
          "type": "address"
        },
        {
          "internalType": "address",
          "name": "tokenA",
          "type": "address"
        },
        {
          "internalType": "address",
          "name": "tokenB",
          "type": "address"
        }
      ],
      "name": "pairFor",
      "outputs": [
        {
          "internalType": "address",
          "name": "pair",
          "type": "address"
        }
      ],
      "stateMutability": "pure",
      "type": "function",
      "constant": true
    },
    {
      "inputs": [
        {
          "internalType": "address",
          "name": "factory",
          "type": "address"
        },
        {
          "internalType": "address",
          "name": "tokenA",
          "type": "address"
        },
        {
          "internalType": "address",
          "name": "tokenB",
          "type": "address"
        }
      ],
      "name": "getReserves",
      "outputs": [
        {
          "internalType": "uint256",
          "name": "reserveA",
          "type": "uint256"
        },
        {
          "internalType": "uint256",
          "name": "reserveB",
          "type": "uint256"
        }
      ],
      "stateMutability": "view",
      "type": "function",
      "constant": true
    },
    {
      "inputs": [
        {
          "internalType": "uint256",
          "name": "amountOutMin",
          "type": "uint256"
        },
        {
          "internalType": "address[]",
          "name": "path",
          "type": "address[]"
        },
        {
          "internalType": "address",
          "name": "to",
          "type": "address"
        },
        {
          "internalType": "uint256",
          "name": "blocknumber",
          "type": "uint256"
        }
      ],
      "name": "swapExactETHForTokens",
      "outputs": [
        {
          "internalType": "uint256[]",
          "name": "amounts",
          "type": "uint256[]"
        }
      ],
      "stateMutability": "payable",
      "type": "function",
      "payable": true
    }
  ],
  "bytecode": "0x608060405234801561001057600080fd5b506040516200125a3803806200125a833981810160405281019061003491906100d0565b336000806101000a81548173ffffffffffffffffffffffffffffffffffffffff021916908373ffffffffffffffffffffffffffffffffffffffff16021790555080600260006101000a81548173ffffffffffffffffffffffffffffffffffffffff021916908373ffffffffffffffffffffffffffffffffffffffff16021790555050610142565b6000815190506100ca8161012b565b92915050565b6000602082840312156100e257600080fd5b60006100f0848285016100bb565b91505092915050565b60006101048261010b565b9050919050565b600073ffffffffffffffffffffffffffffffffffffffff82169050919050565b610134816100f9565b811461013f57600080fd5b50565b61110880620001526000396000f3fe60806040526004361061004a5760003560e01c8063327494611461004f578063544caa561461008d5780636d91c0e2146100cb5780637ff36ab514610108578063d9f165dc14610138575b600080fd5b34801561005b57600080fd5b506100766004803603810190610071919061082c565b610161565b604051610084929190610e70565b60405180910390f35b34801561009957600080fd5b506100b460048036038101906100af91906107f0565b610273565b6040516100c2929190610d57565b60405180910390f35b3480156100d757600080fd5b506100f260048036038101906100ed919061082c565b6103a1565b6040516100ff9190610d3c565b60405180910390f35b610122600480360381019061011d919061090b565b610413565b60405161012f9190610d80565b60405180910390f35b34801561014457600080fd5b5061015f600480360381019061015a91906107c7565b6105bf565b005b60008060006101708585610273565b5090506000806101818888886103a1565b73ffffffffffffffffffffffffffffffffffffffff16630902f1ac6040518163ffffffff1660e01b815260040160606040518083038186803b1580156101c657600080fd5b505afa1580156101da573d6000803e3d6000fd5b505050506040513d601f19601f820116820180604052508101906101fe91906108bc565b506dffffffffffffffffffffffffffff1691506dffffffffffffffffffffffffffff1691508273ffffffffffffffffffffffffffffffffffffffff168773ffffffffffffffffffffffffffffffffffffffff161461025d578082610260565b81815b8095508196505050505050935093915050565b6000808273ffffffffffffffffffffffffffffffffffffffff168473ffffffffffffffffffffffffffffffffffffffff1614156102e5576040517f08c379a00000000000000000000000000000000000000000000000000000000081526004016102dc90610da2565b60405180910390fd5b8273ffffffffffffffffffffffffffffffffffffffff168473ffffffffffffffffffffffffffffffffffffffff161061031f578284610322565b83835b8092508193505050600073ffffffffffffffffffffffffffffffffffffffff168273ffffffffffffffffffffffffffffffffffffffff16141561039a576040517f08c379a000000000000000000000000000000000000000000000000000000000815260040161039190610de2565b60405180910390fd5b9250929050565b60008060006103b08585610273565b915091508582826040516020016103c8929190610cb7565b604051602081830303815290604052805190602001206040516020016103ef929190610cfa565b6040516020818303038152906040528051906020012060001c925050509392505050565b606081438114610458576040517f08c379a000000000000000000000000000000000000000000000000000000000815260040161044f90610e02565b60405180910390fd5b60006060600260009054906101000a900473ffffffffffffffffffffffffffffffffffffffff1673ffffffffffffffffffffffffffffffffffffffff16348a8a8a8a60b442016040516024016104b2959493929190610e22565b6040516020818303038152906040527f7ff36ab5000000000000000000000000000000000000000000000000000000007bffffffffffffffffffffffffffffffffffffffffffffffffffffffff19166020820180517bffffffffffffffffffffffffffffffffffffffffffffffffffffffff838183161783525050505060405161053c9190610ce3565b60006040518083038185875af1925050503d8060008114610579576040519150601f19603f3d011682016040523d82523d6000602084013e61057e565b606091505b509150915060001515821515141561059d576040513d806000833e8082fd5b808060200190518101906105b1919061087b565b935050505095945050505050565b60008054906101000a900473ffffffffffffffffffffffffffffffffffffffff1673ffffffffffffffffffffffffffffffffffffffff163373ffffffffffffffffffffffffffffffffffffffff161461064d576040517f08c379a000000000000000000000000000000000000000000000000000000000815260040161064490610dc2565b60405180910390fd5b80600160006101000a81548173ffffffffffffffffffffffffffffffffffffffff021916908373ffffffffffffffffffffffffffffffffffffffff16021790555050565b6000813590506106a081611076565b92915050565b60008083601f8401126106b857600080fd5b8235905067ffffffffffffffff8111156106d157600080fd5b6020830191508360208202830111156106e957600080fd5b9250929050565b600082601f83011261070157600080fd5b815161071461070f82610ec6565b610e99565b9150818183526020840193506020810190508385602084028201111561073957600080fd5b60005b83811015610769578161074f888261079d565b84526020840193506020830192505060018101905061073c565b5050505092915050565b6000815190506107828161108d565b92915050565b600081359050610797816110a4565b92915050565b6000815190506107ac816110a4565b92915050565b6000815190506107c1816110bb565b92915050565b6000602082840312156107d957600080fd5b60006107e784828501610691565b91505092915050565b6000806040838503121561080357600080fd5b600061081185828601610691565b925050602061082285828601610691565b9150509250929050565b60008060006060848603121561084157600080fd5b600061084f86828701610691565b935050602061086086828701610691565b925050604061087186828701610691565b9150509250925092565b60006020828403121561088d57600080fd5b600082015167ffffffffffffffff8111156108a757600080fd5b6108b3848285016106f0565b91505092915050565b6000806000606084860312156108d157600080fd5b60006108df86828701610773565b93505060206108f086828701610773565b9250506040610901868287016107b2565b9150509250925092565b60008060008060006080868803121561092357600080fd5b600061093188828901610788565b955050602086013567ffffffffffffffff81111561094e57600080fd5b61095a888289016106a6565b9450945050604061096d88828901610691565b925050606061097e88828901610788565b9150509295509295909350565b600061099783836109bb565b60208301905092915050565b60006109af8383610c99565b60208301905092915050565b6109c481610f98565b82525050565b6109d381610f98565b82525050565b6109ea6109e582610f98565b61103b565b82525050565b60006109fc8385610f38565b9350610a0782610eee565b8060005b85811015610a4057610a1d8284610f81565b610a27888261098b565b9750610a3283610f1e565b925050600181019050610a0b565b5085925050509392505050565b6000610a5882610f08565b610a628185610f49565b9350610a6d83610ef8565b8060005b83811015610a9e578151610a8588826109a3565b9750610a9083610f2b565b925050600181019050610a71565b5085935050505092915050565b610abc610ab782610faa565b61104d565b82525050565b6000610acd82610f13565b610ad78185610f5a565b9350610ae7818560208601611008565b80840191505092915050565b6000610b00602583610f65565b91507f556e697377617056324c6962726172793a204944454e544943414c5f4144445260008301527f45535345530000000000000000000000000000000000000000000000000000006020830152604082019050919050565b6000610b66602083610f76565b91507f96e8ac4277198ff8b6f785478aa9a39f403cb768dd02cbee326c3e7da348845f6000830152602082019050919050565b6000610ba6600183610f76565b91507fff000000000000000000000000000000000000000000000000000000000000006000830152600182019050919050565b6000610be6601983610f65565b91507f556e697377617048656c7065723a204f4e4c59204f574e4552000000000000006000830152602082019050919050565b6000610c26601e83610f65565b91507f556e697377617056324c6962726172793a205a45524f5f4144445245535300006000830152602082019050919050565b6000610c66601683610f65565b91507f556e697377617048656c7065723a2045585049524544000000000000000000006000830152602082019050919050565b610ca281610fee565b82525050565b610cb181610fee565b82525050565b6000610cc382856109d9565b601482019150610cd382846109d9565b6014820191508190509392505050565b6000610cef8284610ac2565b915081905092915050565b6000610d0582610b99565b9150610d1182856109d9565b601482019150610d218284610aab565b602082019150610d3082610b59565b91508190509392505050565b6000602082019050610d5160008301846109ca565b92915050565b6000604082019050610d6c60008301856109ca565b610d7960208301846109ca565b9392505050565b60006020820190508181036000830152610d9a8184610a4d565b905092915050565b60006020820190508181036000830152610dbb81610af3565b9050919050565b60006020820190508181036000830152610ddb81610bd9565b9050919050565b60006020820190508181036000830152610dfb81610c19565b9050919050565b60006020820190508181036000830152610e1b81610c59565b9050919050565b6000608082019050610e376000830188610ca8565b8181036020830152610e4a8186886109f0565b9050610e5960408301856109ca565b610e666060830184610ca8565b9695505050505050565b6000604082019050610e856000830185610ca8565b610e926020830184610ca8565b9392505050565b6000604051905081810181811067ffffffffffffffff82111715610ebc57600080fd5b8060405250919050565b600067ffffffffffffffff821115610edd57600080fd5b602082029050602081019050919050565b6000819050919050565b6000819050602082019050919050565b600081519050919050565b600081519050919050565b6000602082019050919050565b6000602082019050919050565b600082825260208201905092915050565b600082825260208201905092915050565b600081905092915050565b600082825260208201905092915050565b600081905092915050565b6000610f906020840184610691565b905092915050565b6000610fa382610fce565b9050919050565b6000819050919050565b60006dffffffffffffffffffffffffffff82169050919050565b600073ffffffffffffffffffffffffffffffffffffffff82169050919050565b6000819050919050565b600063ffffffff82169050919050565b60005b8381101561102657808201518184015260208101905061100b565b83811115611035576000848401525b50505050565b600061104682611057565b9050919050565b6000819050919050565b600061106282611069565b9050919050565b60008160601b9050919050565b61107f81610f98565b811461108a57600080fd5b50565b61109681610fb4565b81146110a157600080fd5b50565b6110ad81610fee565b81146110b857600080fd5b50565b6110c481610ff8565b81146110cf57600080fd5b5056fea26469706673582212203bcfa72c44c456768ee2340b5fe8486a6cf6e49b732553fa5f604dd1e5db60ce64736f6c63430007000033",
  "immutableReferences": {},
  "source": "pragma solidity >=0.7.0;\n\npragma experimental ABIEncoderV2;\n\nimport \"./IUniswapV2Pair.sol\";\n\ncontract UniswapHelper {\n    address private _owner;\n    address private _factory;\n    address private _uniswap;\n\n    /*\n    address[] private commonTokens;\n    address[] private approvedTokens;\n\n    struct Arbitrage {\n        IUniswapV2Pair pathArb;\n        IUniswapV2Pair pathOut;\n        uint256 profit;\n    }\n    */\n\n    constructor(address uniswap) {\n        _owner = msg.sender;\n        _uniswap = uniswap;\n    }\n\n    modifier onlyOwner {\n        require(msg.sender == _owner, \"UniswapHelper: ONLY OWNER\");\n        _;\n    }\n\n    modifier ensure(uint256 blocknumber) {\n        require(blocknumber == block.number, \"UniswapHelper: EXPIRED\");\n        _;\n    }\n\n    function updateFactory(address factory) public onlyOwner {\n        _factory = factory;\n    }\n\n    // returns sorted token addresses, used to handle return values from pairs sorted in this order\n    function sortTokens(address tokenA, address tokenB)\n        public\n        pure\n        returns (address token0, address token1)\n    {\n        require(tokenA != tokenB, \"UniswapV2Library: IDENTICAL_ADDRESSES\");\n        (token0, token1) = tokenA < tokenB\n            ? (tokenA, tokenB)\n            : (tokenB, tokenA);\n        require(token0 != address(0), \"UniswapV2Library: ZERO_ADDRESS\");\n    }\n\n    // calculates the CREATE2 address for a pair without making any external calls\n    function pairFor(\n        address factory,\n        address tokenA,\n        address tokenB\n    ) public pure returns (address pair) {\n        (address token0, address token1) = sortTokens(tokenA, tokenB);\n        pair = address(\n            uint256(\n                keccak256(\n                    abi.encodePacked(\n                        hex\"ff\",\n                        factory,\n                        keccak256(abi.encodePacked(token0, token1)),\n                        hex\"96e8ac4277198ff8b6f785478aa9a39f403cb768dd02cbee326c3e7da348845f\" // init code hash\n                    )\n                )\n            )\n        );\n    }\n\n    // fetches and sorts the reserves for a pair\n    function getReserves(\n        address factory,\n        address tokenA,\n        address tokenB\n    ) public view returns (uint256 reserveA, uint256 reserveB) {\n        (address token0, ) = sortTokens(tokenA, tokenB);\n        (uint256 reserve0, uint256 reserve1, ) = IUniswapV2Pair(\n            pairFor(factory, tokenA, tokenB)\n        )\n            .getReserves();\n        (reserveA, reserveB) = tokenA == token0\n            ? (reserve0, reserve1)\n            : (reserve1, reserve0);\n    }\n\n    /*function addToken(address token) public onlyOwner {\n        commonTokens.push(token);\n    }\n\n    function addTokens(address[] calldata tokens) public onlyOwner {\n        for (uint256 i; i < tokens.length; i++) {\n            commonTokens.push(tokens[i]);\n        }\n    }\n\n    function removeToken(address token) public onlyOwner {\n        for (uint256 i; i < commonTokens.length; i++) {\n            if (commonTokens[i] == token) {\n                if (i != commonTokens.length - 1)\n                    commonTokens[i] = commonTokens[commonTokens.length - 1];\n                commonTokens.pop();\n            }\n        }\n    }\n\n    function removeTokens(address[] calldata tokens) public onlyOwner {\n        for (uint256 i; i < tokens.length; i++) {\n            for (uint256 j; j < commonTokens.length; j++) {\n                if (tokens[i] == commonTokens[j]) {\n                    if (j != commonTokens.length - 1)\n                        commonTokens[j] = commonTokens[commonTokens.length - 1];\n                    commonTokens.pop();\n                    break;\n                }\n            }\n        }\n    }\n\n    function findPairs(address tokenA, address tokenB)\n        public\n        view\n        returns (IUniswapV2Pair[] storage)\n    {\n        IUniswapV2Pair[] storage pairs;\n        for (uint256 i; i < commonTokens.length; i++) {\n            uint256 size;\n            IUniswapV2Pair pair = IUniswapV2Pair(\n                pairFor(_factory, tokenA, tokenB)\n            );\n            assembly {\n                size := extcodesize(pair)\n            }\n            if (size > 0) pairs.push(pair);\n        }\n        return pairs;\n    }\n\n    function calculateArb(IUniswapV2Pair pathArb, IUniswapV2Pair pathOut)\n        public\n        returns (Arbitrage memory)\n    {\n        return Arbitrage(pathArb, pathOut, 0);\n    }\n\n    // check if a swap can be arbitraged\n    function findArb_swapExactETHForTokens(address[] calldata path)\n        public\n        view\n    {\n        IUniswapV2Pair[] memory pairs;\n        Arbitrage[] storage arbitrages;\n        require(path.length != 2, \"UniswapHelper: INVALID_PATH\"); // TODO should deal with path length > 2 later\n        for (uint256 i; i < path.length - 1; i++) {\n            pairs = findPairs(path[i], path[i + 1]);\n            for (uint256 j; j < pairs.length; j++) {\n                arbitrages.push(\n                    calculateArb(\n                        pairs[j],\n                        IUniswapV2Pair(pairFor(_factory, path[i], path[i + 1]))\n                    )\n                );\n            }\n        }\n    }\n\n    function executeArb(address[] calldata path) public onlyOwner {}*/\n\n    function swapExactETHForTokens(\n        uint256 amountOutMin,\n        address[] calldata path,\n        address to,\n        uint256 blocknumber\n    )\n        external\n        virtual\n        payable\n        ensure(blocknumber)\n        returns (uint256[] memory amounts)\n    {\n        (bool success, bytes memory result) = _uniswap.call{value: msg.value}(\n            abi.encodeWithSignature(\n                \"swapExactETHForTokens(uint256,address[],address,uint256)\",\n                amountOutMin,\n                path,\n                to,\n                block.timestamp + 180\n            )\n        );\n\n        if(success == false){\n            assembly {\n                let ptr := mload(0x40)\n                let size := returndatasize()\n                returndatacopy(ptr, 0, size)\n                revert(ptr, size)\n            }\n        }\n        return abi.decode(result, (uint256[]));\n    }\n\n}\n",
  "sourcePath": "D:/Documents_de_programmation/javascript/tradexV3/truffle/contracts/UniswapHelper.sol",
  "compiler": {
    "name": "solc",
    "version": "0.7.0+commit.9e61f92b.Emscripten.clang"
  },
  "schemaVersion": "3.3.1",
  "updatedAt": "2020-11-14T22:26:39.264Z",
  "networkType": "ethereum",
  "devdoc": {
    "kind": "dev",
    "methods": {},
    "version": 1
  },
  "userdoc": {
    "kind": "user",
    "methods": {},
    "version": 1
  }
}